:100000007028A70001300628A7000430A4002808A3
:100010002602031D0D28270825020430031801308D
:10002000031902302405031D01306C28A301A90027
:10003000AA01A01123080319A0150530A20027303A
:10004000A80010302F200330A800E8302F20A8018E
:1000500064302F20A8010A302F2029083628A70055
:100060002A08A6002908A50050202508A500A203FB
:100070000319A01123080319402822020318472856
:100080002508031DA011A0194728303E4D2808005F
:100090000C1E4828990003146C28211948280800D0
:1000A000AA01A9011030AB00260DA90DAA0D270841
:1000B000A9022808031C280FAA020318662827088B
:1000C000A90728080318280FAA070310A50DA60DD5
:1000D000AB0B542825080800831383120313080070
:1000E00083018316333099002430980083129030B6
:1000F0009800A0018316871583128A1157298A1147
:1001000047213208A6003108A5000730A8009E301C
:100110008A010120B0003208A6003108A50008308D
:10012000A80002308A010420B0058A1103199A2818
:100130008A1137213208A6003108A5000330A80033
:10014000B6308A010120B0003208A6003108A500AF
:100150000330A800D4308A010420B0058A110319A5
:1001600036290130B300113033028A110318BF2839
:100170008A1137210130B3078A11031CB328B30158
:10018000083033028A110318EF288A113721320808
:10019000A6003108A5000130A8005E308A010120C8
:1001A000B0003208A6003108A5000130A800723066
:1001B0008A010420B0058A110319E5283308343E6A
:1001C0008400013080008A11EA283308343E84001C
:1001D000003080000130B3078A11031CC0283408A6
:1001E000013903193C10031D3C143508013903196A
:1001F000BC10031DBC143608013903193C11031D42
:100200003C15370801390319BC11031DBC1538080A
:10021000013903193C12031D3C1639080139031931
:10022000BC12031DBC163A08013903193C13031D07
:100230003C173B0801390319BC13031DBC1763307D
:100240008A0148206D308A01482064308A014820A4
:100250003A308A01482020308A0148200430A10029
:100260003C088A0116200D308A01482008008A11B6
:10027000871D3C298A013729B201B1018A118719EA
:100280004629B10A0319B20A8A013E2908008A11D7
:1002900087194C298A014729B201B1018A11871DAA
:1002A0005629B10A0319B20A8A014E2908008A01A7
:0A02B0007F208A0157298A015B298B
:02400E00AA3FC7
:00000001FF
